:020000040800F2
:100000001804002049010008F104000883040008D6
:10001000ED04000891010008A90700080000000095
:10002000000000000000000000000000BD05000806
:100030009501000800000000990500084507000828
:100040006301000863010008630100086301000800
:1000500063010008630100089901000863010008BA
:1000600063010008630100086301000863010008E0
:1000700063010008630100086301000863010008D0
:1000800063010008630100086301000863010008C0
:1000900063010008630100086301000863010008B0
:1000A00063010008630100086301000863010008A0
:1000B0006301000863010008630100086301000890
:1000C0006301000863010008630100086301000880
:1000D0006301000863010008630100086301000870
:1000E000BD01000863010008630100086301000806
:1000F0006301000863010008630100086301000850
:10010000630100086301000863010008630100083F
:10011000630100086301000863010008630100082F
:10012000630100086301000863010008630100081F
:10013000DFF810D000F01AF800480047CD0700089B
:10014000AFF30080180400200648804706480047A7
:10015000FEE7FEE7FEE7FEE7FEE7FEE7FEE7FEE777
:10016000FEE7FEE74907000831010008064C074D8D
:1001700006E0E06840F0010394E807009847103477
:10018000AC42F6D3FFF7D8FF18080008380800087B
:1001900000BFFEE77047000010B5012000F04CF8EA
:1001A00028B10548006880F020000349086001205C
:1001B00000F018F810BD00000C0C014010B54FF411
:1001C000005000F039F828B10548006880F00100BF
:1001D000034908604FF4005000F004F810BD00001F
:1001E0000C0C0140014908607047000014040140F4
:1001F00008B50121152000F0D1F904208DF8030085
:1002000042F20100ADF8000001208DF802006946BD
:10021000074800F0A9F86946064800F0A5F8002153
:10022000084600F081F80D21022000F07DF808BD9D
:100230000008014000100140014600200022074B49
:100240001B6803EA0102054B14331B680B4013B112
:100250000AB1012000E000207047000000040140C6
:10026000002123498279002A3AD00A46126803689D
:100270009A430B461A600A1D126803689A430B1DC5
:100280001A60027911440A6803681A430A60184A1E
:100290000832126803689A43154B08331A601A1D16
:1002A000126803689A43124B0C331A604279102A81
:1002B0000ED11A1F126803681A430D4B08331A60D7
:1002C0001A1D126803681A43094B0C331A600DE0BB
:1002D0000749427911440A6803681A430A6005E035
:1002E000027911440A6803689A430A607047000063
:1002F000000401401CB542F20100009000208DF87E
:10030000040008208DF8050001208DF806006846DD
:10031000FFF7A6FF1CBD10B500F0EBF8FFF768FF74
:10032000FFF7E8FF10BD000030B500228B071C0F5F
:100330000F2303FA04F20B4B8C1053F82430934331
:10034000084C8D1044F8253023468C1053F8243087
:100350008C07240F00FA04F42343024C8D1044F858
:10036000253030BD080001402DE9F041024600254E
:100370000026002000230024002791F803C00CF081
:100380000F0591F803C00CF0100CBCF1000F03D066
:1003900091F802C04CEA050591F800C0BCF1000FCD
:1003A00031D0146800202BE04FF0010C0CFA00F360
:1003B000B1F800C00CEA03069E4220D183004FF042
:1003C0000F0C0CFA03F7BC4305FA03FC4CEA0404D7
:1003D00091F803C0BCF1280F06D14FF0010C0CFAC4
:1003E00000FCC2F814C00AE091F803C0BCF1480F49
:1003F00005D14FF0010C0CFA00FCC2F810C0401CF3
:100400000828D1D31460B1F800C0BCF1FF0F34DD6F
:10041000546800202EE000F1080C4FF0010808FAA3
:100420000CF3B1F800C00CEA03069E4221D1830010
:100430004FF00F0C0CFA03F7BC4305FA03FC4CEA2F
:10044000040491F803C0BCF1280F05D100F1080C99
:1004500008FA0CF8C2F8148091F803C0BCF1480FF8
:1004600007D100F1080C4FF0010808FA0CF8C2F8A7
:100470001080401C0828CED35460BDE8F081016193
:10048000704700BFFEE7000008B510208DF803009C
:100490002320ADF8000003208DF8020069460C48C7
:1004A000FFF762FF69460A48FFF75EFF69460848A2
:1004B000FFF75AFF20210648FFF7E1FF012104481A
:1004C000FFF7DDFF02210248FFF7D9FF08BD00005A
:1004D000000C014010B50121082000F05FF810BDAC
:1004E00010B5FFF7F7FFFFF7CFFF10BD00BFFEE726
:1004F000704708B506208DF8000000208DF8010037
:1005000001208DF80300684600F00EF828208DF8D1
:1005100000000F208DF8010001208DF803006846CF
:1005200000F002F808BD000070B5002100230F2282
:10053000C47804B3154C246804F4E064C4F5E064A2
:10054000210AC1F10403CA40447804FA03F1847813
:100550001440214309010E4C0678A155047804F09B
:100560001F050124AC4005786D11AD0005F1E025B3
:10057000C5F8004109E0047804F01F050124AC40EF
:10058000044D0678761145F8264070BD0CED00E06C
:1005900000E400E080E100E07047000029B1064A75
:1005A00092690243044B9A6104E0034A92698243D0
:1005B000014B9A617047000000100240704710B56F
:1005C00000F002F810BD00000CB500200190009072
:1005D0003348006840F480303149086000BF30483B
:1005E000006800F4003000900198401C01900098D1
:1005F00018B90198B0F5A06FF1D12948006800F44E
:10060000003010B10120009001E00020009000981F
:10061000012843D12348006840F0100021490860B8
:100620000846006820F0030008600846006840F0B3
:10063000020008601A484068194948600846406846
:1006400048600846406840F480604860084640685A
:1006500020F47C1048600846406840F4E810486088
:100660000846006840F08070086000BF0C480068D1
:1006700000F000700028F9D00948406820F003001D
:10068000074948600846406840F00200486000BFE3
:100690000348406800F00C000828F9D10CBD0000A8
:1006A000001002400020024030B50146481EB0F163
:1006B000807F01D3012030BD481E4FF0E022506101
:1006C00050170F22002807DA13071D0E094B00F000
:1006D0000F04241F1D5503E013071C0E064B1C546A
:1006E00000BF00204FF0E022906107201061002041
:1006F000E1E7000018ED00E000E400E070B504461A
:100700000F4800684FF47A71B0FBF1F63046FFF7FE
:10071000CBFF002508E000BF4FF0E020006900F4A7
:1007200080300028F8D06D1CA542F4D34FF0E020B3
:10073000006920F001004FF0E021086170BD000069
:10074000000000207047000010B51348006840F01A
:1007500001001149086008464068104908400E49E8
:100760004860084600680E4908400B490860084682
:10077000006820F4802008600846406820F4FE00ED
:1007800048604FF41F008860FFF719FF4FF00060CA
:100790000449086010BD0000001002400000FFF88E
:1007A000FFFFF6FE08ED00E000BFFEE702E008C82C
:1007B000121F08C1002AFAD170477047002001E0DB
:1007C00001C1121F002AFBD1704700000024002540
:1007D00000BFFFF7A0FDFFF783FE1AE04FF0E02017
:1007E000846920200B4908604FF47A70FFF786FF78
:1007F00020200849091F08604FF47A70FFF77EFF38
:100800004FF0E0208569A54203D2281B4821B0FBA8
:10081000F1F0E3E7140C0140380800080000002064
:1008200014000000AC0700084C0800081400002069
:1008300004040000BC07000800A24A0400000000F5
:0C08400000000000010203040607080984
:0400000508000131BD
:00000001FF
